{
  "contractName": "Transaction",
  "abi": [
    {
      "anonymous": false,
      "inputs": [
        {
          "indexed": false,
          "internalType": "address",
          "name": "from",
          "type": "address"
        },
        {
          "indexed": false,
          "internalType": "address",
          "name": "receiver",
          "type": "address"
        },
        {
          "indexed": false,
          "internalType": "string",
          "name": "user_id",
          "type": "string"
        },
        {
          "indexed": false,
          "internalType": "string",
          "name": "election_id",
          "type": "string"
        },
        {
          "indexed": false,
          "internalType": "string",
          "name": "candidate_id",
          "type": "string"
        },
        {
          "indexed": false,
          "internalType": "uint256",
          "name": "timestamp",
          "type": "uint256"
        }
      ],
      "name": "Transfer",
      "type": "event"
    },
    {
      "inputs": [
        {
          "internalType": "uint256",
          "name": "",
          "type": "uint256"
        }
      ],
      "name": "transactions",
      "outputs": [
        {
          "internalType": "address",
          "name": "from",
          "type": "address"
        },
        {
          "internalType": "address",
          "name": "receiver",
          "type": "address"
        },
        {
          "internalType": "string",
          "name": "user_id",
          "type": "string"
        },
        {
          "internalType": "string",
          "name": "election_id",
          "type": "string"
        },
        {
          "internalType": "string",
          "name": "candidate_id",
          "type": "string"
        },
        {
          "internalType": "uint256",
          "name": "timestamp",
          "type": "uint256"
        }
      ],
      "stateMutability": "view",
      "type": "function",
      "constant": true
    },
    {
      "inputs": [
        {
          "internalType": "address payable",
          "name": "receiver",
          "type": "address"
        },
        {
          "internalType": "string",
          "name": "user_id",
          "type": "string"
        },
        {
          "internalType": "string",
          "name": "election_id",
          "type": "string"
        },
        {
          "internalType": "string",
          "name": "candidate_id",
          "type": "string"
        }
      ],
      "name": "addToBlockchain",
      "outputs": [],
      "stateMutability": "nonpayable",
      "type": "function"
    },
    {
      "inputs": [],
      "name": "getAllTransaction",
      "outputs": [
        {
          "components": [
            {
              "internalType": "address",
              "name": "from",
              "type": "address"
            },
            {
              "internalType": "address",
              "name": "receiver",
              "type": "address"
            },
            {
              "internalType": "string",
              "name": "user_id",
              "type": "string"
            },
            {
              "internalType": "string",
              "name": "election_id",
              "type": "string"
            },
            {
              "internalType": "string",
              "name": "candidate_id",
              "type": "string"
            },
            {
              "internalType": "uint256",
              "name": "timestamp",
              "type": "uint256"
            }
          ],
          "internalType": "struct Transaction.TransactionStruct[]",
          "name": "",
          "type": "tuple[]"
        }
      ],
      "stateMutability": "view",
      "type": "function",
      "constant": true
    },
    {
      "inputs": [],
      "name": "getTransactionCount",
      "outputs": [
        {
          "internalType": "uint256",
          "name": "",
          "type": "uint256"
        }
      ],
      "stateMutability": "view",
      "type": "function",
      "constant": true
    }
  ],
  "bytecode": "0x608060405234801561001057600080fd5b50610fd1806100206000396000f3fe608060405234801561001057600080fd5b506004361061004c5760003560e01c806325ecc6e0146100515780632e7700f01461006d5780639ace38c21461008b578063add6415d146100c0575b600080fd5b61006b600480360381019061006691906108e0565b6100de565b005b6100756102b3565b6040516100829190610c9f565b60405180910390f35b6100a560048036038101906100a0919061098b565b6102bc565b6040516100b796959493929190610c07565b60405180910390f35b6100c86104e0565b6040516100d59190610c7d565b60405180910390f35b60016000808282546100f09190610d81565b9250508190555060016040518060c001604052803373ffffffffffffffffffffffffffffffffffffffff1681526020018673ffffffffffffffffffffffffffffffffffffffff16815260200185815260200184815260200183815260200142815250908060018154018082558091505060019003906000526020600020906006020160009091909190915060008201518160000160006101000a81548173ffffffffffffffffffffffffffffffffffffffff021916908373ffffffffffffffffffffffffffffffffffffffff16021790555060208201518160010160006101000a81548173ffffffffffffffffffffffffffffffffffffffff021916908373ffffffffffffffffffffffffffffffffffffffff16021790555060408201518160020190805190602001906102259291906107ab565b5060608201518160030190805190602001906102429291906107ab565b50608082015181600401908051906020019061025f9291906107ab565b5060a0820151816005015550507fc2a008061ffd24e1e90903faea6d67542ba54406f86b22a777a70e56274139073385858585426040516102a596959493929190610b91565b60405180910390a150505050565b60008054905090565b600181815481106102cc57600080fd5b90600052602060002090600602016000915090508060000160009054906101000a900473ffffffffffffffffffffffffffffffffffffffff16908060010160009054906101000a900473ffffffffffffffffffffffffffffffffffffffff169080600201805461033b90610e9d565b80601f016020809104026020016040519081016040528092919081815260200182805461036790610e9d565b80156103b45780601f10610389576101008083540402835291602001916103b4565b820191906000526020600020905b81548152906001019060200180831161039757829003601f168201915b5050505050908060030180546103c990610e9d565b80601f01602080910402602001604051908101604052809291908181526020018280546103f590610e9d565b80156104425780601f1061041757610100808354040283529160200191610442565b820191906000526020600020905b81548152906001019060200180831161042557829003601f168201915b50505050509080600401805461045790610e9d565b80601f016020809104026020016040519081016040528092919081815260200182805461048390610e9d565b80156104d05780601f106104a5576101008083540402835291602001916104d0565b820191906000526020600020905b8154815290600101906020018083116104b357829003601f168201915b5050505050908060050154905086565b60606001805480602002602001604051908101604052809291908181526020016000905b828210156107a257838290600052602060002090600602016040518060c00160405290816000820160009054906101000a900473ffffffffffffffffffffffffffffffffffffffff1673ffffffffffffffffffffffffffffffffffffffff1673ffffffffffffffffffffffffffffffffffffffff1681526020016001820160009054906101000a900473ffffffffffffffffffffffffffffffffffffffff1673ffffffffffffffffffffffffffffffffffffffff1673ffffffffffffffffffffffffffffffffffffffff1681526020016002820180546105e390610e9d565b80601f016020809104026020016040519081016040528092919081815260200182805461060f90610e9d565b801561065c5780601f106106315761010080835404028352916020019161065c565b820191906000526020600020905b81548152906001019060200180831161063f57829003601f168201915b5050505050815260200160038201805461067590610e9d565b80601f01602080910402602001604051908101604052809291908181526020018280546106a190610e9d565b80156106ee5780601f106106c3576101008083540402835291602001916106ee565b820191906000526020600020905b8154815290600101906020018083116106d157829003601f168201915b5050505050815260200160048201805461070790610e9d565b80601f016020809104026020016040519081016040528092919081815260200182805461073390610e9d565b80156107805780601f1061075557610100808354040283529160200191610780565b820191906000526020600020905b81548152906001019060200180831161076357829003601f168201915b5050505050815260200160058201548152505081526020019060010190610504565b50505050905090565b8280546107b790610e9d565b90600052602060002090601f0160209004810192826107d95760008555610820565b82601f106107f257805160ff1916838001178555610820565b82800160010185558215610820579182015b8281111561081f578251825591602001919060010190610804565b5b50905061082d9190610831565b5090565b5b8082111561084a576000816000905550600101610832565b5090565b600061086161085c84610ceb565b610cba565b90508281526020810184848401111561087957600080fd5b610884848285610e5b565b509392505050565b60008135905061089b81610f6d565b92915050565b600082601f8301126108b257600080fd5b81356108c284826020860161084e565b91505092915050565b6000813590506108da81610f84565b92915050565b600080600080608085870312156108f657600080fd5b60006109048782880161088c565b945050602085013567ffffffffffffffff81111561092157600080fd5b61092d878288016108a1565b935050604085013567ffffffffffffffff81111561094a57600080fd5b610956878288016108a1565b925050606085013567ffffffffffffffff81111561097357600080fd5b61097f878288016108a1565b91505092959194509250565b60006020828403121561099d57600080fd5b60006109ab848285016108cb565b91505092915050565b60006109c08383610adc565b905092915050565b6109d181610e25565b82525050565b6109e081610dd7565b82525050565b6109ef81610dd7565b82525050565b6000610a0082610d2b565b610a0a8185610d4e565b935083602082028501610a1c85610d1b565b8060005b85811015610a585784840389528151610a3985826109b4565b9450610a4483610d41565b925060208a01995050600181019050610a20565b50829750879550505050505092915050565b6000610a7582610d36565b610a7f8185610d5f565b9350610a8f818560208601610e6a565b610a9881610f5c565b840191505092915050565b6000610aae82610d36565b610ab88185610d70565b9350610ac8818560208601610e6a565b610ad181610f5c565b840191505092915050565b600060c083016000830151610af460008601826109d7565b506020830151610b0760208601826109d7565b5060408301518482036040860152610b1f8282610a6a565b91505060608301518482036060860152610b398282610a6a565b91505060808301518482036080860152610b538282610a6a565b91505060a0830151610b6860a0860182610b73565b508091505092915050565b610b7c81610e1b565b82525050565b610b8b81610e1b565b82525050565b600060c082019050610ba660008301896109e6565b610bb360208301886109c8565b8181036040830152610bc58187610aa3565b90508181036060830152610bd98186610aa3565b90508181036080830152610bed8185610aa3565b9050610bfc60a0830184610b82565b979650505050505050565b600060c082019050610c1c60008301896109e6565b610c2960208301886109e6565b8181036040830152610c3b8187610aa3565b90508181036060830152610c4f8186610aa3565b90508181036080830152610c638185610aa3565b9050610c7260a0830184610b82565b979650505050505050565b60006020820190508181036000830152610c9781846109f5565b905092915050565b6000602082019050610cb46000830184610b82565b92915050565b6000604051905081810181811067ffffffffffffffff82111715610ce157610ce0610f2d565b5b8060405250919050565b600067ffffffffffffffff821115610d0657610d05610f2d565b5b601f19601f8301169050602081019050919050565b6000819050602082019050919050565b600081519050919050565b600081519050919050565b6000602082019050919050565b600082825260208201905092915050565b600082825260208201905092915050565b600082825260208201905092915050565b6000610d8c82610e1b565b9150610d9783610e1b565b9250827fffffffffffffffffffffffffffffffffffffffffffffffffffffffffffffffff03821115610dcc57610dcb610ecf565b5b828201905092915050565b6000610de282610dfb565b9050919050565b6000610df482610dfb565b9050919050565b600073ffffffffffffffffffffffffffffffffffffffff82169050919050565b6000819050919050565b6000610e3082610e37565b9050919050565b6000610e4282610e49565b9050919050565b6000610e5482610dfb565b9050919050565b82818337600083830152505050565b60005b83811015610e88578082015181840152602081019050610e6d565b83811115610e97576000848401525b50505050565b60006002820490506001821680610eb557607f821691505b60208210811415610ec957610ec8610efe565b5b50919050565b7f4e487b7100000000000000000000000000000000000000000000000000000000600052601160045260246000fd5b7f4e487b7100000000000000000000000000000000000000000000000000000000600052602260045260246000fd5b7f4e487b7100000000000000000000000000000000000000000000000000000000600052604160045260246000fd5b6000601f19601f8301169050919050565b610f7681610de9565b8114610f8157600080fd5b50565b610f8d81610e1b565b8114610f9857600080fd5b5056fea26469706673582212202cd609b957f770a52b4cd5a4074884267800cac1950b60ae379bf93fa3ec657064736f6c63430008000033",
  "immutableReferences": {},
  "source": "// SPDX-License-Identifier: UNLICENSED\r\npragma solidity ^0.8.0;\r\n\r\ncontract Transaction{\r\n    uint256 transactionCounter;\r\n\r\n    event Transfer(address from,address receiver,string user_id,string election_id,string candidate_id,uint timestamp);\r\n\r\n    struct TransactionStruct {\r\n        address from;\r\n        address receiver;\r\n        string user_id;\r\n        string election_id;\r\n        string candidate_id;\r\n        uint timestamp; \r\n    }\r\n\r\n    TransactionStruct[] public transactions;\r\n\r\n    function addToBlockchain(address payable receiver,string memory user_id,string memory election_id,string memory candidate_id) public {\r\n        transactionCounter+=1;\r\n        transactions.push(TransactionStruct(msg.sender,receiver,user_id,election_id,candidate_id,block.timestamp));\r\n\r\n        emit Transfer(msg.sender,receiver,user_id,election_id,candidate_id,block.timestamp);\r\n    }\r\n    \r\n    function getAllTransaction() public view returns (TransactionStruct[] memory) {\r\n    return transactions;\r\n}\r\n\r\n    function getTransactionCount() public view returns (uint256){\r\n        return transactionCounter;\r\n    }\r\n\r\n}",
  "sourcePath": "C:\\Users\\anushka\\E-Voting-System-Using-Blockchain\\smart_contract\\contracts\\Transaction.sol",
  "compiler": {
    "name": "solc",
    "version": "0.8.0+commit.c7dfd78e.Emscripten.clang"
  },
  "schemaVersion": "3.4.16",
  "updatedAt": "2025-05-09T10:30:45.135Z",
  "networkType": "ethereum",
  "devdoc": {
    "kind": "dev",
    "methods": {},
    "version": 1
  },
  "userdoc": {
    "kind": "user",
    "methods": {},
    "version": 1
  }
}